{"contracts/MedicalDataLedger.sol":{"MedicalDataLedger":{"abi":[{"anonymous":false,"inputs":[{"indexed":true,"internalType":"bytes32","name":"recordId","type":"bytes32"},{"indexed":true,"internalType":"address","name":"grantedTo","type":"address"}],"name":"AccessGranted","type":"event"},{"anonymous":false,"inputs":[{"indexed":true,"internalType":"bytes32","name":"recordId","type":"bytes32"},{"indexed":true,"internalType":"address","name":"revokedFrom","type":"address"}],"name":"AccessRevoked","type":"event"},{"anonymous":false,"inputs":[{"indexed":true,"internalType":"bytes32","name":"recordId","type":"bytes32"},{"indexed":true,"internalType":"address","name":"owner","type":"address"},{"indexed":false,"internalType":"string","name":"dataHash","type":"string"}],"name":"RecordAdded","type":"event"},{"inputs":[{"internalType":"string","name":"dataHash","type":"string"}],"name":"addMedicalRecord","outputs":[{"internalType":"bytes32","name":"","type":"bytes32"}],"stateMutability":"nonpayable","type":"function"},{"inputs":[{"internalType":"bytes32","name":"recordId","type":"bytes32"}],"name":"getRecord","outputs":[{"internalType":"address","name":"owner","type":"address"},{"internalType":"string","name":"dataHash","type":"string"},{"internalType":"uint256","name":"timestamp","type":"uint256"}],"stateMutability":"view","type":"function"},{"inputs":[{"internalType":"bytes32","name":"recordId","type":"bytes32"},{"internalType":"address","name":"user","type":"address"}],"name":"grantAccess","outputs":[],"stateMutability":"nonpayable","type":"function"},{"inputs":[{"internalType":"bytes32","name":"recordId","type":"bytes32"},{"internalType":"address","name":"user","type":"address"}],"name":"hasAccess","outputs":[{"internalType":"bool","name":"","type":"bool"}],"stateMutability":"view","type":"function"},{"inputs":[{"internalType":"bytes32","name":"recordId","type":"bytes32"},{"internalType":"address","name":"user","type":"address"}],"name":"revokeAccess","outputs":[],"stateMutability":"nonpayable","type":"function"}],"evm":{"bytecode":{"linkReferences":{},"object":"608060405234801561001057600080fd5b50611050806100206000396000f3fe608060405234801561001057600080fd5b50600436106100575760003560e01c8063213681cd1461005c57806340554c3a1461008e57806383177db3146100aa5780638d53b208146100da578063e671926a146100f6575b600080fd5b6100766004803603810190610071919061082e565b610126565b60405161008593929190610945565b60405180910390f35b6100a860048036038101906100a391906109af565b6102f9565b005b6100c460048036038101906100bf91906109af565b61044c565b6040516100d19190610a0a565b60405180910390f35b6100f460048036038101906100ef91906109af565b6104b4565b005b610110600480360381019061010b9190610a8a565b610608565b60405161011d9190610ae6565b60405180910390f35b6000606060006001600085815260200190815260200160002060003373ffffffffffffffffffffffffffffffffffffffff1673ffffffffffffffffffffffffffffffffffffffff16815260200190815260200160002060009054906101000a900460ff166101c9576040517f08c379a00000000000000000000000000000000000000000000000000000000081526004016101c090610b4d565b60405180910390fd5b60008060008681526020019081526020016000206040518060600160405290816000820160009054906101000a900473ffffffffffffffffffffffffffffffffffffffff1673ffffffffffffffffffffffffffffffffffffffff1673ffffffffffffffffffffffffffffffffffffffff16815260200160018201805461024e90610b9c565b80601f016020809104026020016040519081016040528092919081815260200182805461027a90610b9c565b80156102c75780601f1061029c576101008083540402835291602001916102c7565b820191906000526020600020905b8154815290600101906020018083116102aa57829003601f168201915b505050505081526020016002820154815250509050806000015181602001518260400151935093509350509193909250565b3373ffffffffffffffffffffffffffffffffffffffff1660008084815260200190815260200160002060000160009054906101000a900473ffffffffffffffffffffffffffffffffffffffff1673ffffffffffffffffffffffffffffffffffffffff161461039c576040517f08c379a000000000000000000000000000000000000000000000000000000000815260040161039390610c19565b60405180910390fd5b600180600084815260200190815260200160002060008373ffffffffffffffffffffffffffffffffffffffff1673ffffffffffffffffffffffffffffffffffffffff16815260200190815260200160002060006101000a81548160ff0219169083151502179055508073ffffffffffffffffffffffffffffffffffffffff16827ff20afd7b032307b01752ee91e3f6a4b83a5b4ab631f9ab279322fd45634382c060405160405180910390a35050565b60006001600084815260200190815260200160002060008373ffffffffffffffffffffffffffffffffffffffff1673ffffffffffffffffffffffffffffffffffffffff16815260200190815260200160002060009054906101000a900460ff16905092915050565b3373ffffffffffffffffffffffffffffffffffffffff1660008084815260200190815260200160002060000160009054906101000a900473ffffffffffffffffffffffffffffffffffffffff1673ffffffffffffffffffffffffffffffffffffffff1614610557576040517f08c379a000000000000000000000000000000000000000000000000000000000815260040161054e90610c19565b60405180910390fd5b60006001600084815260200190815260200160002060008373ffffffffffffffffffffffffffffffffffffffff1673ffffffffffffffffffffffffffffffffffffffff16815260200190815260200160002060006101000a81548160ff0219169083151502179055508073ffffffffffffffffffffffffffffffffffffffff16827fe7906b77ea165c70ad8268ce5b59b778a198edf9c1ae4118378eefdc76fce5f460405160405180910390a35050565b600080338484426040516020016106229493929190610ce1565b60405160208183030381529060405280519060200120905060405180606001604052803373ffffffffffffffffffffffffffffffffffffffff16815260200185858080601f016020809104026020016040519081016040528093929190818152602001838380828437600081840152601f19601f8201169050808301925050505050505081526020014281525060008083815260200190815260200160002060008201518160000160006101000a81548173ffffffffffffffffffffffffffffffffffffffff021916908373ffffffffffffffffffffffffffffffffffffffff160217905550602082015181600101908161071d9190610ef7565b5060408201518160020155905050600180600083815260200190815260200160002060003373ffffffffffffffffffffffffffffffffffffffff1673ffffffffffffffffffffffffffffffffffffffff16815260200190815260200160002060006101000a81548160ff0219169083151502179055503373ffffffffffffffffffffffffffffffffffffffff16817fb6ecb69dbe4a8e3ecddbfe27e2d83e193ffc69019fb274867b23e54104c67a7586866040516107dc929190610ff6565b60405180910390a38091505092915050565b600080fd5b600080fd5b6000819050919050565b61080b816107f8565b811461081657600080fd5b50565b60008135905061082881610802565b92915050565b600060208284031215610844576108436107ee565b5b600061085284828501610819565b91505092915050565b600073ffffffffffffffffffffffffffffffffffffffff82169050919050565b60006108868261085b565b9050919050565b6108968161087b565b82525050565b600081519050919050565b600082825260208201905092915050565b60005b838110156108d65780820151818401526020810190506108bb565b60008484015250505050565b6000601f19601f8301169050919050565b60006108fe8261089c565b61090881856108a7565b93506109188185602086016108b8565b610921816108e2565b840191505092915050565b6000819050919050565b61093f8161092c565b82525050565b600060608201905061095a600083018661088d565b818103602083015261096c81856108f3565b905061097b6040830184610936565b949350505050565b61098c8161087b565b811461099757600080fd5b50565b6000813590506109a981610983565b92915050565b600080604083850312156109c6576109c56107ee565b5b60006109d485828601610819565b92505060206109e58582860161099a565b9150509250929050565b60008115159050919050565b610a04816109ef565b82525050565b6000602082019050610a1f60008301846109fb565b92915050565b600080fd5b600080fd5b600080fd5b60008083601f840112610a4a57610a49610a25565b5b8235905067ffffffffffffffff811115610a6757610a66610a2a565b5b602083019150836001820283011115610a8357610a82610a2f565b5b9250929050565b60008060208385031215610aa157610aa06107ee565b5b600083013567ffffffffffffffff811115610abf57610abe6107f3565b5b610acb85828601610a34565b92509250509250929050565b610ae0816107f8565b82525050565b6000602082019050610afb6000830184610ad7565b92915050565b7f4163636573732064656e69656400000000000000000000000000000000000000600082015250565b6000610b37600d836108a7565b9150610b4282610b01565b602082019050919050565b60006020820190508181036000830152610b6681610b2a565b9050919050565b7f4e487b7100000000000000000000000000000000000000000000000000000000600052602260045260246000fd5b60006002820490506001821680610bb457607f821691505b602082108103610bc757610bc6610b6d565b5b50919050565b7f4e6f74206f776e65720000000000000000000000000000000000000000000000600082015250565b6000610c036009836108a7565b9150610c0e82610bcd565b602082019050919050565b60006020820190508181036000830152610c3281610bf6565b9050919050565b60008160601b9050919050565b6000610c5182610c39565b9050919050565b6000610c6382610c46565b9050919050565b610c7b610c768261087b565b610c58565b82525050565b600081905092915050565b82818337600083830152505050565b6000610ca78385610c81565b9350610cb4838584610c8c565b82840190509392505050565b6000819050919050565b610cdb610cd68261092c565b610cc0565b82525050565b6000610ced8287610c6a565b601482019150610cfe828587610c9b565b9150610d0a8284610cca565b60208201915081905095945050505050565b7f4e487b7100000000000000000000000000000000000000000000000000000000600052604160045260246000fd5b60008190508160005260206000209050919050565b60006020601f8301049050919050565b600082821b905092915050565b600060088302610dad7fffffffffffffffffffffffffffffffffffffffffffffffffffffffffffffffff82610d70565b610db78683610d70565b95508019841693508086168417925050509392505050565b6000819050919050565b6000610df4610def610dea8461092c565b610dcf565b61092c565b9050919050565b6000819050919050565b610e0e83610dd9565b610e22610e1a82610dfb565b848454610d7d565b825550505050565b600090565b610e37610e2a565b610e42818484610e05565b505050565b5b81811015610e6657610e5b600082610e2f565b600181019050610e48565b5050565b601f821115610eab57610e7c81610d4b565b610e8584610d60565b81016020851015610e94578190505b610ea8610ea085610d60565b830182610e47565b50505b505050565b600082821c905092915050565b6000610ece60001984600802610eb0565b1980831691505092915050565b6000610ee78383610ebd565b9150826002028217905092915050565b610f008261089c565b67ffffffffffffffff811115610f1957610f18610d1c565b5b610f238254610b9c565b610f2e828285610e6a565b600060209050601f831160018114610f615760008415610f4f578287015190505b610f598582610edb565b865550610fc1565b601f198416610f6f86610d4b565b60005b82811015610f9757848901518255600182019150602085019450602081019050610f72565b86831015610fb45784890151610fb0601f891682610ebd565b8355505b6001600288020188555050505b505050505050565b6000610fd583856108a7565b9350610fe2838584610c8c565b610feb836108e2565b840190509392505050565b60006020820190508181036000830152611011818486610fc9565b9050939250505056fea2646970667358221220fcef724d31aaae6964d92d2efd778c666252b6ec2f866b724ccdec210f893d1764736f6c63430008140033","opcodes":"PUSH1 0x80 PUSH1 0x40 MSTORE CALLVALUE DUP1 ISZERO PUSH2 0x10 JUMPI PUSH1 0x0 DUP1 REVERT JUMPDEST POP PUSH2 0x1050 DUP1 PUSH2 0x20 PUSH1 0x0 CODECOPY PUSH1 0x0 RETURN INVALID PUSH1 0x80 PUSH1 0x40 MSTORE CALLVALUE DUP1 ISZERO PUSH2 0x10 JUMPI PUSH1 0x0 DUP1 REVERT JUMPDEST POP PUSH1 0x4 CALLDATASIZE LT PUSH2 0x57 JUMPI PUSH1 0x0 CALLDATALOAD PUSH1 0xE0 SHR DUP1 PUSH4 0x213681CD EQ PUSH2 0x5C JUMPI DUP1 PUSH4 0x40554C3A EQ PUSH2 0x8E JUMPI DUP1 PUSH4 0x83177DB3 EQ PUSH2 0xAA JUMPI DUP1 PUSH4 0x8D53B208 EQ PUSH2 0xDA JUMPI DUP1 PUSH4 0xE671926A EQ PUSH2 0xF6 JUMPI JUMPDEST PUSH1 0x0 DUP1 REVERT JUMPDEST PUSH2 0x76 PUSH1 0x4 DUP1 CALLDATASIZE SUB DUP2 ADD SWAP1 PUSH2 0x71 SWAP2 SWAP1 PUSH2 0x82E JUMP JUMPDEST PUSH2 0x126 JUMP JUMPDEST PUSH1 0x40 MLOAD PUSH2 0x85 SWAP4 SWAP3 SWAP2 SWAP1 PUSH2 0x945 JUMP JUMPDEST PUSH1 0x40 MLOAD DUP1 SWAP2 SUB SWAP1 RETURN JUMPDEST PUSH2 0xA8 PUSH1 0x4 DUP1 CALLDATASIZE SUB DUP2 ADD SWAP1 PUSH2 0xA3 SWAP2 SWAP1 PUSH2 0x9AF JUMP JUMPDEST PUSH2 0x2F9 JUMP JUMPDEST STOP JUMPDEST PUSH2 0xC4 PUSH1 0x4 DUP1 CALLDATASIZE SUB DUP2 ADD SWAP1 PUSH2 0xBF SWAP2 SWAP1 PUSH2 0x9AF JUMP JUMPDEST PUSH2 0x44C JUMP JUMPDEST PUSH1 0x40 MLOAD PUSH2 0xD1 SWAP2 SWAP1 PUSH2 0xA0A JUMP JUMPDEST PUSH1 0x40 MLOAD DUP1 SWAP2 SUB SWAP1 RETURN JUMPDEST PUSH2 0xF4 PUSH1 0x4 DUP1 CALLDATASIZE SUB DUP2 ADD SWAP1 PUSH2 0xEF SWAP2 SWAP1 PUSH2 0x9AF JUMP JUMPDEST PUSH2 0x4B4 JUMP JUMPDEST STOP JUMPDEST PUSH2 0x110 PUSH1 0x4 DUP1 CALLDATASIZE SUB DUP2 ADD SWAP1 PUSH2 0x10B SWAP2 SWAP1 PUSH2 0xA8A JUMP JUMPDEST PUSH2 0x608 JUMP JUMPDEST PUSH1 0x40 MLOAD PUSH2 0x11D SWAP2 SWAP1 PUSH2 0xAE6 JUMP JUMPDEST PUSH1 0x40 MLOAD DUP1 SWAP2 SUB SWAP1 RETURN JUMPDEST PUSH1 0x0 PUSH1 0x60 PUSH1 0x0 PUSH1 0x1 PUSH1 0x0 DUP6 DUP2 MSTORE PUSH1 0x20 ADD SWAP1 DUP2 MSTORE PUSH1 0x20 ADD PUSH1 0x0 KECCAK256 PUSH1 0x0 CALLER PUSH20 0xFFFFFFFFFFFFFFFFFFFFFFFFFFFFFFFFFFFFFFFF AND PUSH20 0xFFFFFFFFFFFFFFFFFFFFFFFFFFFFFFFFFFFFFFFF AND DUP2 MSTORE PUSH1 0x20 ADD SWAP1 DUP2 MSTORE PUSH1 0x20 ADD PUSH1 0x0 KECCAK256 PUSH1 0x0 SWAP1 SLOAD SWAP1 PUSH2 0x100 EXP SWAP1 DIV PUSH1 0xFF AND PUSH2 0x1C9 JUMPI PUSH1 0x40 MLOAD PUSH32 0x8C379A000000000000000000000000000000000000000000000000000000000 DUP2 MSTORE PUSH1 0x4 ADD PUSH2 0x1C0 SWAP1 PUSH2 0xB4D JUMP JUMPDEST PUSH1 0x40 MLOAD DUP1 SWAP2 SUB SWAP1 REVERT JUMPDEST PUSH1 0x0 DUP1 PUSH1 0x0 DUP7 DUP2 MSTORE PUSH1 0x20 ADD SWAP1 DUP2 MSTORE PUSH1 0x20 ADD PUSH1 0x0 KECCAK256 PUSH1 0x40 MLOAD DUP1 PUSH1 0x60 ADD PUSH1 0x40 MSTORE SWAP1 DUP2 PUSH1 0x0 DUP3 ADD PUSH1 0x0 SWAP1 SLOAD SWAP1 PUSH2 0x100 EXP SWAP1 DIV PUSH20 0xFFFFFFFFFFFFFFFFFFFFFFFFFFFFFFFFFFFFFFFF AND PUSH20 0xFFFFFFFFFFFFFFFFFFFFFFFFFFFFFFFFFFFFFFFF AND PUSH20 0xFFFFFFFFFFFFFFFFFFFFFFFFFFFFFFFFFFFFFFFF AND DUP2 MSTORE PUSH1 0x20 ADD PUSH1 0x1 DUP3 ADD DUP1 SLOAD PUSH2 0x24E SWAP1 PUSH2 0xB9C JUMP JUMPDEST DUP1 PUSH1 0x1F ADD PUSH1 0x20 DUP1 SWAP2 DIV MUL PUSH1 0x20 ADD PUSH1 0x40 MLOAD SWAP1 DUP2 ADD PUSH1 0x40 MSTORE DUP1 SWAP3 SWAP2 SWAP1 DUP2 DUP2 MSTORE PUSH1 0x20 ADD DUP3 DUP1 SLOAD PUSH2 0x27A SWAP1 PUSH2 0xB9C JUMP JUMPDEST DUP1 ISZERO PUSH2 0x2C7 JUMPI DUP1 PUSH1 0x1F LT PUSH2 0x29C JUMPI PUSH2 0x100 DUP1 DUP4 SLOAD DIV MUL DUP4 MSTORE SWAP2 PUSH1 0x20 ADD SWAP2 PUSH2 0x2C7 JUMP JUMPDEST DUP3 ADD SWAP2 SWAP1 PUSH1 0x0 MSTORE PUSH1 0x20 PUSH1 0x0 KECCAK256 SWAP1 JUMPDEST DUP2 SLOAD DUP2 MSTORE SWAP1 PUSH1 0x1 ADD SWAP1 PUSH1 0x20 ADD DUP1 DUP4 GT PUSH2 0x2AA JUMPI DUP3 SWAP1 SUB PUSH1 0x1F AND DUP3 ADD SWAP2 JUMPDEST POP POP POP POP POP DUP2 MSTORE PUSH1 0x20 ADD PUSH1 0x2 DUP3 ADD SLOAD DUP2 MSTORE POP POP SWAP1 POP DUP1 PUSH1 0x0 ADD MLOAD DUP2 PUSH1 0x20 ADD MLOAD DUP3 PUSH1 0x40 ADD MLOAD SWAP4 POP SWAP4 POP SWAP4 POP POP SWAP2 SWAP4 SWAP1 SWAP3 POP JUMP JUMPDEST CALLER PUSH20 0xFFFFFFFFFFFFFFFFFFFFFFFFFFFFFFFFFFFFFFFF AND PUSH1 0x0 DUP1 DUP5 DUP2 MSTORE PUSH1 0x20 ADD SWAP1 DUP2 MSTORE PUSH1 0x20 ADD PUSH1 0x0 KECCAK256 PUSH1 0x0 ADD PUSH1 0x0 SWAP1 SLOAD SWAP1 PUSH2 0x100 EXP SWAP1 DIV PUSH20 0xFFFFFFFFFFFFFFFFFFFFFFFFFFFFFFFFFFFFFFFF AND PUSH20 0xFFFFFFFFFFFFFFFFFFFFFFFFFFFFFFFFFFFFFFFF AND EQ PUSH2 0x39C JUMPI PUSH1 0x40 MLOAD PUSH32 0x8C379A000000000000000000000000000000000000000000000000000000000 DUP2 MSTORE PUSH1 0x4 ADD PUSH2 0x393 SWAP1 PUSH2 0xC19 JUMP JUMPDEST PUSH1 0x40 MLOAD DUP1 SWAP2 SUB SWAP1 REVERT JUMPDEST PUSH1 0x1 DUP1 PUSH1 0x0 DUP5 DUP2 MSTORE PUSH1 0x20 ADD SWAP1 DUP2 MSTORE PUSH1 0x20 ADD PUSH1 0x0 KECCAK256 PUSH1 0x0 DUP4 PUSH20 0xFFFFFFFFFFFFFFFFFFFFFFFFFFFFFFFFFFFFFFFF AND PUSH20 0xFFFFFFFFFFFFFFFFFFFFFFFFFFFFFFFFFFFFFFFF AND DUP2 MSTORE PUSH1 0x20 ADD SWAP1 DUP2 MSTORE PUSH1 0x20 ADD PUSH1 0x0 KECCAK256 PUSH1 0x0 PUSH2 0x100 EXP DUP2 SLOAD DUP2 PUSH1 0xFF MUL NOT AND SWAP1 DUP4 ISZERO ISZERO MUL OR SWAP1 SSTORE POP DUP1 PUSH20 0xFFFFFFFFFFFFFFFFFFFFFFFFFFFFFFFFFFFFFFFF AND DUP3 PUSH32 0xF20AFD7B032307B01752EE91E3F6A4B83A5B4AB631F9AB279322FD45634382C0 PUSH1 0x40 MLOAD PUSH1 0x40 MLOAD DUP1 SWAP2 SUB SWAP1 LOG3 POP POP JUMP JUMPDEST PUSH1 0x0 PUSH1 0x1 PUSH1 0x0 DUP5 DUP2 MSTORE PUSH1 0x20 ADD SWAP1 DUP2 MSTORE PUSH1 0x20 ADD PUSH1 0x0 KECCAK256 PUSH1 0x0 DUP4 PUSH20 0xFFFFFFFFFFFFFFFFFFFFFFFFFFFFFFFFFFFFFFFF AND PUSH20 0xFFFFFFFFFFFFFFFFFFFFFFFFFFFFFFFFFFFFFFFF AND DUP2 MSTORE PUSH1 0x20 ADD SWAP1 DUP2 MSTORE PUSH1 0x20 ADD PUSH1 0x0 KECCAK256 PUSH1 0x0 SWAP1 SLOAD SWAP1 PUSH2 0x100 EXP SWAP1 DIV PUSH1 0xFF AND SWAP1 POP SWAP3 SWAP2 POP POP JUMP JUMPDEST CALLER PUSH20 0xFFFFFFFFFFFFFFFFFFFFFFFFFFFFFFFFFFFFFFFF AND PUSH1 0x0 DUP1 DUP5 DUP2 MSTORE PUSH1 0x20 ADD SWAP1 DUP2 MSTORE PUSH1 0x20 ADD PUSH1 0x0 KECCAK256 PUSH1 0x0 ADD PUSH1 0x0 SWAP1 SLOAD SWAP1 PUSH2 0x100 EXP SWAP1 DIV PUSH20 0xFFFFFFFFFFFFFFFFFFFFFFFFFFFFFFFFFFFFFFFF AND PUSH20 0xFFFFFFFFFFFFFFFFFFFFFFFFFFFFFFFFFFFFFFFF AND EQ PUSH2 0x557 JUMPI PUSH1 0x40 MLOAD PUSH32 0x8C379A000000000000000000000000000000000000000000000000000000000 DUP2 MSTORE PUSH1 0x4 ADD PUSH2 0x54E SWAP1 PUSH2 0xC19 JUMP JUMPDEST PUSH1 0x40 MLOAD DUP1 SWAP2 SUB SWAP1 REVERT JUMPDEST PUSH1 0x0 PUSH1 0x1 PUSH1 0x0 DUP5 DUP2 MSTORE PUSH1 0x20 ADD SWAP1 DUP2 MSTORE PUSH1 0x20 ADD PUSH1 0x0 KECCAK256 PUSH1 0x0 DUP4 PUSH20 0xFFFFFFFFFFFFFFFFFFFFFFFFFFFFFFFFFFFFFFFF AND PUSH20 0xFFFFFFFFFFFFFFFFFFFFFFFFFFFFFFFFFFFFFFFF AND DUP2 MSTORE PUSH1 0x20 ADD SWAP1 DUP2 MSTORE PUSH1 0x20 ADD PUSH1 0x0 KECCAK256 PUSH1 0x0 PUSH2 0x100 EXP DUP2 SLOAD DUP2 PUSH1 0xFF MUL NOT AND SWAP1 DUP4 ISZERO ISZERO MUL OR SWAP1 SSTORE POP DUP1 PUSH20 0xFFFFFFFFFFFFFFFFFFFFFFFFFFFFFFFFFFFFFFFF AND DUP3 PUSH32 0xE7906B77EA165C70AD8268CE5B59B778A198EDF9C1AE4118378EEFDC76FCE5F4 PUSH1 0x40 MLOAD PUSH1 0x40 MLOAD DUP1 SWAP2 SUB SWAP1 LOG3 POP POP JUMP JUMPDEST PUSH1 0x0 DUP1 CALLER DUP5 DUP5 TIMESTAMP PUSH1 0x40 MLOAD PUSH1 0x20 ADD PUSH2 0x622 SWAP5 SWAP4 SWAP3 SWAP2 SWAP1 PUSH2 0xCE1 JUMP JUMPDEST PUSH1 0x40 MLOAD PUSH1 0x20 DUP2 DUP4 SUB SUB DUP2 MSTORE SWAP1 PUSH1 0x40 MSTORE DUP1 MLOAD SWAP1 PUSH1 0x20 ADD KECCAK256 SWAP1 POP PUSH1 0x40 MLOAD DUP1 PUSH1 0x60 ADD PUSH1 0x40 MSTORE DUP1 CALLER PUSH20 0xFFFFFFFFFFFFFFFFFFFFFFFFFFFFFFFFFFFFFFFF AND DUP2 MSTORE PUSH1 0x20 ADD DUP6 DUP6 DUP1 DUP1 PUSH1 0x1F ADD PUSH1 0x20 DUP1 SWAP2 DIV MUL PUSH1 0x20 ADD PUSH1 0x40 MLOAD SWAP1 DUP2 ADD PUSH1 0x40 MSTORE DUP1 SWAP4 SWAP3 SWAP2 SWAP1 DUP2 DUP2 MSTORE PUSH1 0x20 ADD DUP4 DUP4 DUP1 DUP3 DUP5 CALLDATACOPY PUSH1 0x0 DUP2 DUP5 ADD MSTORE PUSH1 0x1F NOT PUSH1 0x1F DUP3 ADD AND SWAP1 POP DUP1 DUP4 ADD SWAP3 POP POP POP POP POP POP POP DUP2 MSTORE PUSH1 0x20 ADD TIMESTAMP DUP2 MSTORE POP PUSH1 0x0 DUP1 DUP4 DUP2 MSTORE PUSH1 0x20 ADD SWAP1 DUP2 MSTORE PUSH1 0x20 ADD PUSH1 0x0 KECCAK256 PUSH1 0x0 DUP3 ADD MLOAD DUP2 PUSH1 0x0 ADD PUSH1 0x0 PUSH2 0x100 EXP DUP2 SLOAD DUP2 PUSH20 0xFFFFFFFFFFFFFFFFFFFFFFFFFFFFFFFFFFFFFFFF MUL NOT AND SWAP1 DUP4 PUSH20 0xFFFFFFFFFFFFFFFFFFFFFFFFFFFFFFFFFFFFFFFF AND MUL OR SWAP1 SSTORE POP PUSH1 0x20 DUP3 ADD MLOAD DUP2 PUSH1 0x1 ADD SWAP1 DUP2 PUSH2 0x71D SWAP2 SWAP1 PUSH2 0xEF7 JUMP JUMPDEST POP PUSH1 0x40 DUP3 ADD MLOAD DUP2 PUSH1 0x2 ADD SSTORE SWAP1 POP POP PUSH1 0x1 DUP1 PUSH1 0x0 DUP4 DUP2 MSTORE PUSH1 0x20 ADD SWAP1 DUP2 MSTORE PUSH1 0x20 ADD PUSH1 0x0 KECCAK256 PUSH1 0x0 CALLER PUSH20 0xFFFFFFFFFFFFFFFFFFFFFFFFFFFFFFFFFFFFFFFF AND PUSH20 0xFFFFFFFFFFFFFFFFFFFFFFFFFFFFFFFFFFFFFFFF AND DUP2 MSTORE PUSH1 0x20 ADD SWAP1 DUP2 MSTORE PUSH1 0x20 ADD PUSH1 0x0 KECCAK256 PUSH1 0x0 PUSH2 0x100 EXP DUP2 SLOAD DUP2 PUSH1 0xFF MUL NOT AND SWAP1 DUP4 ISZERO ISZERO MUL OR SWAP1 SSTORE POP CALLER PUSH20 0xFFFFFFFFFFFFFFFFFFFFFFFFFFFFFFFFFFFFFFFF AND DUP2 PUSH32 0xB6ECB69DBE4A8E3ECDDBFE27E2D83E193FFC69019FB274867B23E54104C67A75 DUP7 DUP7 PUSH1 0x40 MLOAD PUSH2 0x7DC SWAP3 SWAP2 SWAP1 PUSH2 0xFF6 JUMP JUMPDEST PUSH1 0x40 MLOAD DUP1 SWAP2 SUB SWAP1 LOG3 DUP1 SWAP2 POP POP SWAP3 SWAP2 POP POP JUMP JUMPDEST PUSH1 0x0 DUP1 REVERT JUMPDEST PUSH1 0x0 DUP1 REVERT JUMPDEST PUSH1 0x0 DUP2 SWAP1 POP SWAP2 SWAP1 POP JUMP JUMPDEST PUSH2 0x80B DUP2 PUSH2 0x7F8 JUMP JUMPDEST DUP2 EQ PUSH2 0x816 JUMPI PUSH1 0x0 DUP1 REVERT JUMPDEST POP JUMP JUMPDEST PUSH1 0x0 DUP2 CALLDATALOAD SWAP1 POP PUSH2 0x828 DUP2 PUSH2 0x802 JUMP JUMPDEST SWAP3 SWAP2 POP POP JUMP JUMPDEST PUSH1 0x0 PUSH1 0x20 DUP3 DUP5 SUB SLT ISZERO PUSH2 0x844 JUMPI PUSH2 0x843 PUSH2 0x7EE JUMP JUMPDEST JUMPDEST PUSH1 0x0 PUSH2 0x852 DUP5 DUP3 DUP6 ADD PUSH2 0x819 JUMP JUMPDEST SWAP2 POP POP SWAP3 SWAP2 POP POP JUMP JUMPDEST PUSH1 0x0 PUSH20 0xFFFFFFFFFFFFFFFFFFFFFFFFFFFFFFFFFFFFFFFF DUP3 AND SWAP1 POP SWAP2 SWAP1 POP JUMP JUMPDEST PUSH1 0x0 PUSH2 0x886 DUP3 PUSH2 0x85B JUMP JUMPDEST SWAP1 POP SWAP2 SWAP1 POP JUMP JUMPDEST PUSH2 0x896 DUP2 PUSH2 0x87B JUMP JUMPDEST DUP3 MSTORE POP POP JUMP JUMPDEST PUSH1 0x0 DUP2 MLOAD SWAP1 POP SWAP2 SWAP1 POP JUMP JUMPDEST PUSH1 0x0 DUP3 DUP3 MSTORE PUSH1 0x20 DUP3 ADD SWAP1 POP SWAP3 SWAP2 POP POP JUMP JUMPDEST PUSH1 0x0 JUMPDEST DUP4 DUP2 LT ISZERO PUSH2 0x8D6 JUMPI DUP1 DUP3 ADD MLOAD DUP2 DUP5 ADD MSTORE PUSH1 0x20 DUP2 ADD SWAP1 POP PUSH2 0x8BB JUMP JUMPDEST PUSH1 0x0 DUP5 DUP5 ADD MSTORE POP POP POP POP JUMP JUMPDEST PUSH1 0x0 PUSH1 0x1F NOT PUSH1 0x1F DUP4 ADD AND SWAP1 POP SWAP2 SWAP1 POP JUMP JUMPDEST PUSH1 0x0 PUSH2 0x8FE DUP3 PUSH2 0x89C JUMP JUMPDEST PUSH2 0x908 DUP2 DUP6 PUSH2 0x8A7 JUMP JUMPDEST SWAP4 POP PUSH2 0x918 DUP2 DUP6 PUSH1 0x20 DUP7 ADD PUSH2 0x8B8 JUMP JUMPDEST PUSH2 0x921 DUP2 PUSH2 0x8E2 JUMP JUMPDEST DUP5 ADD SWAP2 POP POP SWAP3 SWAP2 POP POP JUMP JUMPDEST PUSH1 0x0 DUP2 SWAP1 POP SWAP2 SWAP1 POP JUMP JUMPDEST PUSH2 0x93F DUP2 PUSH2 0x92C JUMP JUMPDEST DUP3 MSTORE POP POP JUMP JUMPDEST PUSH1 0x0 PUSH1 0x60 DUP3 ADD SWAP1 POP PUSH2 0x95A PUSH1 0x0 DUP4 ADD DUP7 PUSH2 0x88D JUMP JUMPDEST DUP2 DUP2 SUB PUSH1 0x20 DUP4 ADD MSTORE PUSH2 0x96C DUP2 DUP6 PUSH2 0x8F3 JUMP JUMPDEST SWAP1 POP PUSH2 0x97B PUSH1 0x40 DUP4 ADD DUP5 PUSH2 0x936 JUMP JUMPDEST SWAP5 SWAP4 POP POP POP POP JUMP JUMPDEST PUSH2 0x98C DUP2 PUSH2 0x87B JUMP JUMPDEST DUP2 EQ PUSH2 0x997 JUMPI PUSH1 0x0 DUP1 REVERT JUMPDEST POP JUMP JUMPDEST PUSH1 0x0 DUP2 CALLDATALOAD SWAP1 POP PUSH2 0x9A9 DUP2 PUSH2 0x983 JUMP JUMPDEST SWAP3 SWAP2 POP POP JUMP JUMPDEST PUSH1 0x0 DUP1 PUSH1 0x40 DUP4 DUP6 SUB SLT ISZERO PUSH2 0x9C6 JUMPI PUSH2 0x9C5 PUSH2 0x7EE JUMP JUMPDEST JUMPDEST PUSH1 0x0 PUSH2 0x9D4 DUP6 DUP3 DUP7 ADD PUSH2 0x819 JUMP JUMPDEST SWAP3 POP POP PUSH1 0x20 PUSH2 0x9E5 DUP6 DUP3 DUP7 ADD PUSH2 0x99A JUMP JUMPDEST SWAP2 POP POP SWAP3 POP SWAP3 SWAP1 POP JUMP JUMPDEST PUSH1 0x0 DUP2 ISZERO ISZERO SWAP1 POP SWAP2 SWAP1 POP JUMP JUMPDEST PUSH2 0xA04 DUP2 PUSH2 0x9EF JUMP JUMPDEST DUP3 MSTORE POP POP JUMP JUMPDEST PUSH1 0x0 PUSH1 0x20 DUP3 ADD SWAP1 POP PUSH2 0xA1F PUSH1 0x0 DUP4 ADD DUP5 PUSH2 0x9FB JUMP JUMPDEST SWAP3 SWAP2 POP POP JUMP JUMPDEST PUSH1 0x0 DUP1 REVERT JUMPDEST PUSH1 0x0 DUP1 REVERT JUMPDEST PUSH1 0x0 DUP1 REVERT JUMPDEST PUSH1 0x0 DUP1 DUP4 PUSH1 0x1F DUP5 ADD SLT PUSH2 0xA4A JUMPI PUSH2 0xA49 PUSH2 0xA25 JUMP JUMPDEST JUMPDEST DUP3 CALLDATALOAD SWAP1 POP PUSH8 0xFFFFFFFFFFFFFFFF DUP2 GT ISZERO PUSH2 0xA67 JUMPI PUSH2 0xA66 PUSH2 0xA2A JUMP JUMPDEST JUMPDEST PUSH1 0x20 DUP4 ADD SWAP2 POP DUP4 PUSH1 0x1 DUP3 MUL DUP4 ADD GT ISZERO PUSH2 0xA83 JUMPI PUSH2 0xA82 PUSH2 0xA2F JUMP JUMPDEST JUMPDEST SWAP3 POP SWAP3 SWAP1 POP JUMP JUMPDEST PUSH1 0x0 DUP1 PUSH1 0x20 DUP4 DUP6 SUB SLT ISZERO PUSH2 0xAA1 JUMPI PUSH2 0xAA0 PUSH2 0x7EE JUMP JUMPDEST JUMPDEST PUSH1 0x0 DUP4 ADD CALLDATALOAD PUSH8 0xFFFFFFFFFFFFFFFF DUP2 GT ISZERO PUSH2 0xABF JUMPI PUSH2 0xABE PUSH2 0x7F3 JUMP JUMPDEST JUMPDEST PUSH2 0xACB DUP6 DUP3 DUP7 ADD PUSH2 0xA34 JUMP JUMPDEST SWAP3 POP SWAP3 POP POP SWAP3 POP SWAP3 SWAP1 POP JUMP JUMPDEST PUSH2 0xAE0 DUP2 PUSH2 0x7F8 JUMP JUMPDEST DUP3 MSTORE POP POP JUMP JUMPDEST PUSH1 0x0 PUSH1 0x20 DUP3 ADD SWAP1 POP PUSH2 0xAFB PUSH1 0x0 DUP4 ADD DUP5 PUSH2 0xAD7 JUMP JUMPDEST SWAP3 SWAP2 POP POP JUMP JUMPDEST PUSH32 0x4163636573732064656E69656400000000000000000000000000000000000000 PUSH1 0x0 DUP3 ADD MSTORE POP JUMP JUMPDEST PUSH1 0x0 PUSH2 0xB37 PUSH1 0xD DUP4 PUSH2 0x8A7 JUMP JUMPDEST SWAP2 POP PUSH2 0xB42 DUP3 PUSH2 0xB01 JUMP JUMPDEST PUSH1 0x20 DUP3 ADD SWAP1 POP SWAP2 SWAP1 POP JUMP JUMPDEST PUSH1 0x0 PUSH1 0x20 DUP3 ADD SWAP1 POP DUP2 DUP2 SUB PUSH1 0x0 DUP4 ADD MSTORE PUSH2 0xB66 DUP2 PUSH2 0xB2A JUMP JUMPDEST SWAP1 POP SWAP2 SWAP1 POP JUMP JUMPDEST PUSH32 0x4E487B7100000000000000000000000000000000000000000000000000000000 PUSH1 0x0 MSTORE PUSH1 0x22 PUSH1 0x4 MSTORE PUSH1 0x24 PUSH1 0x0 REVERT JUMPDEST PUSH1 0x0 PUSH1 0x2 DUP3 DIV SWAP1 POP PUSH1 0x1 DUP3 AND DUP1 PUSH2 0xBB4 JUMPI PUSH1 0x7F DUP3 AND SWAP2 POP JUMPDEST PUSH1 0x20 DUP3 LT DUP2 SUB PUSH2 0xBC7 JUMPI PUSH2 0xBC6 PUSH2 0xB6D JUMP JUMPDEST JUMPDEST POP SWAP2 SWAP1 POP JUMP JUMPDEST PUSH32 0x4E6F74206F776E65720000000000000000000000000000000000000000000000 PUSH1 0x0 DUP3 ADD MSTORE POP JUMP JUMPDEST PUSH1 0x0 PUSH2 0xC03 PUSH1 0x9 DUP4 PUSH2 0x8A7 JUMP JUMPDEST SWAP2 POP PUSH2 0xC0E DUP3 PUSH2 0xBCD JUMP JUMPDEST PUSH1 0x20 DUP3 ADD SWAP1 POP SWAP2 SWAP1 POP JUMP JUMPDEST PUSH1 0x0 PUSH1 0x20 DUP3 ADD SWAP1 POP DUP2 DUP2 SUB PUSH1 0x0 DUP4 ADD MSTORE PUSH2 0xC32 DUP2 PUSH2 0xBF6 JUMP JUMPDEST SWAP1 POP SWAP2 SWAP1 POP JUMP JUMPDEST PUSH1 0x0 DUP2 PUSH1 0x60 SHL SWAP1 POP SWAP2 SWAP1 POP JUMP JUMPDEST PUSH1 0x0 PUSH2 0xC51 DUP3 PUSH2 0xC39 JUMP JUMPDEST SWAP1 POP SWAP2 SWAP1 POP JUMP JUMPDEST PUSH1 0x0 PUSH2 0xC63 DUP3 PUSH2 0xC46 JUMP JUMPDEST SWAP1 POP SWAP2 SWAP1 POP JUMP JUMPDEST PUSH2 0xC7B PUSH2 0xC76 DUP3 PUSH2 0x87B JUMP JUMPDEST PUSH2 0xC58 JUMP JUMPDEST DUP3 MSTORE POP POP JUMP JUMPDEST PUSH1 0x0 DUP2 SWAP1 POP SWAP3 SWAP2 POP POP JUMP JUMPDEST DUP3 DUP2 DUP4 CALLDATACOPY PUSH1 0x0 DUP4 DUP4 ADD MSTORE POP POP POP JUMP JUMPDEST PUSH1 0x0 PUSH2 0xCA7 DUP4 DUP6 PUSH2 0xC81 JUMP JUMPDEST SWAP4 POP PUSH2 0xCB4 DUP4 DUP6 DUP5 PUSH2 0xC8C JUMP JUMPDEST DUP3 DUP5 ADD SWAP1 POP SWAP4 SWAP3 POP POP POP JUMP JUMPDEST PUSH1 0x0 DUP2 SWAP1 POP SWAP2 SWAP1 POP JUMP JUMPDEST PUSH2 0xCDB PUSH2 0xCD6 DUP3 PUSH2 0x92C JUMP JUMPDEST PUSH2 0xCC0 JUMP JUMPDEST DUP3 MSTORE POP POP JUMP JUMPDEST PUSH1 0x0 PUSH2 0xCED DUP3 DUP8 PUSH2 0xC6A JUMP JUMPDEST PUSH1 0x14 DUP3 ADD SWAP2 POP PUSH2 0xCFE DUP3 DUP6 DUP8 PUSH2 0xC9B JUMP JUMPDEST SWAP2 POP PUSH2 0xD0A DUP3 DUP5 PUSH2 0xCCA JUMP JUMPDEST PUSH1 0x20 DUP3 ADD SWAP2 POP DUP2 SWAP1 POP SWAP6 SWAP5 POP POP POP POP POP JUMP JUMPDEST PUSH32 0x4E487B7100000000000000000000000000000000000000000000000000000000 PUSH1 0x0 MSTORE PUSH1 0x41 PUSH1 0x4 MSTORE PUSH1 0x24 PUSH1 0x0 REVERT JUMPDEST PUSH1 0x0 DUP2 SWAP1 POP DUP2 PUSH1 0x0 MSTORE PUSH1 0x20 PUSH1 0x0 KECCAK256 SWAP1 POP SWAP2 SWAP1 POP JUMP JUMPDEST PUSH1 0x0 PUSH1 0x20 PUSH1 0x1F DUP4 ADD DIV SWAP1 POP SWAP2 SWAP1 POP JUMP JUMPDEST PUSH1 0x0 DUP3 DUP3 SHL SWAP1 POP SWAP3 SWAP2 POP POP JUMP JUMPDEST PUSH1 0x0 PUSH1 0x8 DUP4 MUL PUSH2 0xDAD PUSH32 0xFFFFFFFFFFFFFFFFFFFFFFFFFFFFFFFFFFFFFFFFFFFFFFFFFFFFFFFFFFFFFFFF DUP3 PUSH2 0xD70 JUMP JUMPDEST PUSH2 0xDB7 DUP7 DUP4 PUSH2 0xD70 JUMP JUMPDEST SWAP6 POP DUP1 NOT DUP5 AND SWAP4 POP DUP1 DUP7 AND DUP5 OR SWAP3 POP POP POP SWAP4 SWAP3 POP POP POP JUMP JUMPDEST PUSH1 0x0 DUP2 SWAP1 POP SWAP2 SWAP1 POP JUMP JUMPDEST PUSH1 0x0 PUSH2 0xDF4 PUSH2 0xDEF PUSH2 0xDEA DUP5 PUSH2 0x92C JUMP JUMPDEST PUSH2 0xDCF JUMP JUMPDEST PUSH2 0x92C JUMP JUMPDEST SWAP1 POP SWAP2 SWAP1 POP JUMP JUMPDEST PUSH1 0x0 DUP2 SWAP1 POP SWAP2 SWAP1 POP JUMP JUMPDEST PUSH2 0xE0E DUP4 PUSH2 0xDD9 JUMP JUMPDEST PUSH2 0xE22 PUSH2 0xE1A DUP3 PUSH2 0xDFB JUMP JUMPDEST DUP5 DUP5 SLOAD PUSH2 0xD7D JUMP JUMPDEST DUP3 SSTORE POP POP POP POP JUMP JUMPDEST PUSH1 0x0 SWAP1 JUMP JUMPDEST PUSH2 0xE37 PUSH2 0xE2A JUMP JUMPDEST PUSH2 0xE42 DUP2 DUP5 DUP5 PUSH2 0xE05 JUMP JUMPDEST POP POP POP JUMP JUMPDEST JUMPDEST DUP2 DUP2 LT ISZERO PUSH2 0xE66 JUMPI PUSH2 0xE5B PUSH1 0x0 DUP3 PUSH2 0xE2F JUMP JUMPDEST PUSH1 0x1 DUP2 ADD SWAP1 POP PUSH2 0xE48 JUMP JUMPDEST POP POP JUMP JUMPDEST PUSH1 0x1F DUP3 GT ISZERO PUSH2 0xEAB JUMPI PUSH2 0xE7C DUP2 PUSH2 0xD4B JUMP JUMPDEST PUSH2 0xE85 DUP5 PUSH2 0xD60 JUMP JUMPDEST DUP2 ADD PUSH1 0x20 DUP6 LT ISZERO PUSH2 0xE94 JUMPI DUP2 SWAP1 POP JUMPDEST PUSH2 0xEA8 PUSH2 0xEA0 DUP6 PUSH2 0xD60 JUMP JUMPDEST DUP4 ADD DUP3 PUSH2 0xE47 JUMP JUMPDEST POP POP JUMPDEST POP POP POP JUMP JUMPDEST PUSH1 0x0 DUP3 DUP3 SHR SWAP1 POP SWAP3 SWAP2 POP POP JUMP JUMPDEST PUSH1 0x0 PUSH2 0xECE PUSH1 0x0 NOT DUP5 PUSH1 0x8 MUL PUSH2 0xEB0 JUMP JUMPDEST NOT DUP1 DUP4 AND SWAP2 POP POP SWAP3 SWAP2 POP POP JUMP JUMPDEST PUSH1 0x0 PUSH2 0xEE7 DUP4 DUP4 PUSH2 0xEBD JUMP JUMPDEST SWAP2 POP DUP3 PUSH1 0x2 MUL DUP3 OR SWAP1 POP SWAP3 SWAP2 POP POP JUMP JUMPDEST PUSH2 0xF00 DUP3 PUSH2 0x89C JUMP JUMPDEST PUSH8 0xFFFFFFFFFFFFFFFF DUP2 GT ISZERO PUSH2 0xF19 JUMPI PUSH2 0xF18 PUSH2 0xD1C JUMP JUMPDEST JUMPDEST PUSH2 0xF23 DUP3 SLOAD PUSH2 0xB9C JUMP JUMPDEST PUSH2 0xF2E DUP3 DUP3 DUP6 PUSH2 0xE6A JUMP JUMPDEST PUSH1 0x0 PUSH1 0x20 SWAP1 POP PUSH1 0x1F DUP4 GT PUSH1 0x1 DUP2 EQ PUSH2 0xF61 JUMPI PUSH1 0x0 DUP5 ISZERO PUSH2 0xF4F JUMPI DUP3 DUP8 ADD MLOAD SWAP1 POP JUMPDEST PUSH2 0xF59 DUP6 DUP3 PUSH2 0xEDB JUMP JUMPDEST DUP7 SSTORE POP PUSH2 0xFC1 JUMP JUMPDEST PUSH1 0x1F NOT DUP5 AND PUSH2 0xF6F DUP7 PUSH2 0xD4B JUMP JUMPDEST PUSH1 0x0 JUMPDEST DUP3 DUP2 LT ISZERO PUSH2 0xF97 JUMPI DUP5 DUP10 ADD MLOAD DUP3 SSTORE PUSH1 0x1 DUP3 ADD SWAP2 POP PUSH1 0x20 DUP6 ADD SWAP5 POP PUSH1 0x20 DUP2 ADD SWAP1 POP PUSH2 0xF72 JUMP JUMPDEST DUP7 DUP4 LT ISZERO PUSH2 0xFB4 JUMPI DUP5 DUP10 ADD MLOAD PUSH2 0xFB0 PUSH1 0x1F DUP10 AND DUP3 PUSH2 0xEBD JUMP JUMPDEST DUP4 SSTORE POP JUMPDEST PUSH1 0x1 PUSH1 0x2 DUP9 MUL ADD DUP9 SSTORE POP POP POP JUMPDEST POP POP POP POP POP POP JUMP JUMPDEST PUSH1 0x0 PUSH2 0xFD5 DUP4 DUP6 PUSH2 0x8A7 JUMP JUMPDEST SWAP4 POP PUSH2 0xFE2 DUP4 DUP6 DUP5 PUSH2 0xC8C JUMP JUMPDEST PUSH2 0xFEB DUP4 PUSH2 0x8E2 JUMP JUMPDEST DUP5 ADD SWAP1 POP SWAP4 SWAP3 POP POP POP JUMP JUMPDEST PUSH1 0x0 PUSH1 0x20 DUP3 ADD SWAP1 POP DUP2 DUP2 SUB PUSH1 0x0 DUP4 ADD MSTORE PUSH2 0x1011 DUP2 DUP5 DUP7 PUSH2 0xFC9 JUMP JUMPDEST SWAP1 POP SWAP4 SWAP3 POP POP POP JUMP INVALID LOG2 PUSH5 0x6970667358 0x22 SLT KECCAK256 0xFC 0xEF PUSH19 0x4D31AAAE6964D92D2EFD778C666252B6EC2F86 PUSH12 0x724CCDEC210F893D1764736F PUSH13 0x63430008140033000000000000 "},"methodIdentifiers":{"addMedicalRecord(string)":"e671926a","getRecord(bytes32)":"213681cd","grantAccess(bytes32,address)":"40554c3a","hasAccess(bytes32,address)":"83177db3","revokeAccess(bytes32,address)":"8d53b208"}}}}}